:100000002CC050C0FBC3FAC34DC04CC04BC04AC04B
:1000100049C048C047C0A8C345C044C043C042C04F
:1000200041C000003A00370000003B0038000000EB
:100030003900360001010101010101010202020142
:1000400002040810204080040201000000000004A7
:10005000030201000000A8053F0611241FBECFE5E2
:10006000D1E0DEBFCDBF10E0A0E6B0E0EEE4FDE001
:1000700002C005900D92A837B107D9F721E0A8E793
:10008000B0E001C01D92A030B207E1F710E0CCE271
:10009000D0E003C02197FE0144D6CB32D107D1F77F
:1000A00027D449C6ADCFCF92DF92EF92FF920F9344
:1000B0001F93CF93DF936C017A018B01C0E0D0E0F6
:1000C000CE15DF0589F0D8016D918D01D601ED9136
:1000D000FC910190F081E02DC6010995892B11F466
:1000E0007E0102C02196ECCFC701DF91CF911F9115
:1000F0000F91FF90EF90DF90CF900895823099F0AC
:1001000018F4813069F00895833019F0843021F0BB
:1001100008958FB58F7702C08FB58F7D8FBD0895FD
:1001200080B78F7702C080B78F7D80BF08951F93FF
:10013000CF93DF93282F30E0F901E65BFF4F8491E6
:10014000F901E15CFF4FD491F901EC5CFF4FC491E0
:10015000CC23C1F0162F8111D1DFEC2FF0E0EE0F90
:10016000FF1FE85DFF4FA591B4918FB7F89411116F
:1001700005C09C91ED2FE095E92302C0EC91ED2B99
:10018000EC938FBFDF91CF911F910895CF93DF93B1
:1001900090E0FC01E15CFF4F2491FC01EC5CFF4F1F
:1001A0008491882361F190E0880F991FFC01EE5D36
:1001B000FF4FC591D491FC01E85DFF4FA591B4912B
:1001C000611109C09FB7F8948881209582238883A4
:1001D000EC912E230BC0623061F49FB7F894388104
:1001E000822F809583238883EC912E2B2C939FBFA5
:1001F00006C08FB7F894E8812E2B28838FBFDF913C
:10020000CF9108953FB7F8948091BD009091BE00C2
:10021000A091BF00B091C00022B708B600FE05C093
:100220002F3F19F00196A11DB11D3FBFBA2FA92F75
:10023000982F8827820F911DA11DB11DBC01CD01F2
:1002400046E0660F771F881F991F4A95D1F70895DA
:100250008F929F92AF92BF92CF92DF92EF92FF92D6
:100260006B017C01CFDF4B015C01C114D104E104BF
:10027000F104E9F0C7DFDC01CB0188199909AA096B
:10028000BB09883E9340A105B10578F321E0C21A6D
:10029000D108E108F10888EE880E83E0981EA11CC1
:1002A000B11CC114D104E104F10421F7DECFFF90A9
:1002B000EF90DF90CF90BF90AF909F908F90089578
:1002C0002091C3003091C4002817390771F4909130
:1002D000C1008091C200981741F0E091C100F0E0A8
:1002E000E858FF4F808190E008958FEF9FEF0895C9
:1002F00008951F93CF93DF93DC015C962D913C9181
:100300005D972115310539F481E090E013969C93B7
:100310008E9312973DC05196ED91FC915297509655
:100320009C915097892F80951FB75E964C915E9750
:1003300041FB772770F941FD6095F8944081772360
:1003400011F0492B01C048234083E9012197F1F7BF
:1003500048E0508160FF02C0592B01C058235083F0
:10036000E9012197F1F76695415099F7772321F03C
:1003700090818923808303C08081982B90831FBF45
:100380005C968D919C915D970197F1F721E030E0AB
:10039000C901DF91CF911F9108952091C300309141
:1003A000C4002817390769F48091C2002091C10068
:1003B00090E0805C9F4F821B910960E470E068D4FC
:1003C000089580E090E008952091C3003091C4002A
:1003D00028173907B9F49091C1008091C20098178D
:1003E00089F0E091C100F0E0E858FF4F8081209152
:1003F000C10030E02F5F3F4F2F7333272093C100A0
:1004000090E008958FEF9FEF0895E091C300F09181
:10041000C400E817F90769F4A389B4899C91858918
:10042000809589238C931092C4001092C30081E0C0
:10043000089580E008958F929F92AF92BF920F939C
:100440001F93CF93DF93CDB7DEB7A1970FB6F89484
:10045000DEBF0FBECDBF19A2423008F44AE08E01C4
:100460000F5D1F4F842E912CA12CB12CA50194015E
:1004700022D4E62FB901CA0101501109EA3014F45F
:10048000E05D01C0E95CD801EC93232B242B252BE4
:1004900069F70115110569F0F80101900020E9F7ED
:1004A0003197AF01401B510BB80188EE90E0FBDDA6
:1004B00002C080E090E0A1960FB6F894DEBF0FBEB8
:1004C000CDBFDF91CF911F910F91BF90AF909F90C3
:1004D0008F900895CF92DF92EF92FF92CF93DF93A8
:1004E0006B017C01E091E800F091E9000190F0815E
:1004F000E02D6DE288EE90E00995EC016627772704
:10050000CB016C197D098E099F094AE094DF8C0F9D
:100510009D1FDF91CF91FF90EF90DF90CF900895D6
:10052000CF93DF93EC0160E08E8101DE61E08E818C
:10053000FEDD60E08E81FBDD83E190E00197F1F765
:10054000DF91CF910895CF92DF92EF92FF920F93B8
:100550001F93CF93DF937C016C0187E0C80ED11C01
:10056000C0E0D0E0062F10E0B8010C2E02C0759557
:1005700067950A94E2F76170F60181916F01D7DD0A
:100580002196C430D10581F7C701DF91CF911F912A
:100590000F91FF90EF90DF90CF90C2CFCF92DF927C
:1005A000EF92FF920F931F93CF93DF93EC01F62E00
:1005B000642F8C81BCDD8D818F3F11F060E0B7DD51
:1005C0008F850F2D10E084FF23C06E0187E0C80ED9
:1005D000D11CE12CF12CB8010E2C02C07595679549
:1005E0000A94E2F76170F60181916F01A0DDFFEFDF
:1005F000EF1AFF0A88E0E816F10469F7CE01DF91EF
:10060000CF911F910F91FF90EF90DF90CF9088CF07
:10061000B80184E0759567958A95E1F7CE0193DF7F
:100620006F2DCE01DF91CF911F910F91FF90EF9031
:10063000DF90CF9088CF41E0B1DF81E090E0089576
:1006400040E0ACCFEF92FF920F931F93CF93DF93D5
:10065000EC01623018F08F8588608F876B8B1C8A65
:1006600080E48D8B80E18E8B80E58F8B61E08C81C7
:100670008DDD8D818F3F11F061E088DD61E08E813D
:1006800085DD7E0187E0E80EF11C00E010E08F853B
:1006900084FD03C084E090E002C088E090E0081789
:1006A000190744F461E0F70181917F016FDD0F5F6D
:1006B0001F4FEDCF8EEC90E30197F1F760E08C8156
:1006C00036DD60E08E8133DD8D818F3F11F060E09B
:1006D0002EDD6F8564FD19C063E0CE0134DF0FE5C8
:1006E00014E0C8010197F1F763E0CE012CDFC801E7
:1006F0000197F1F763E0CE0126DF80E290E00197F9
:10070000F1F762E0CE011FDF13C06062CE0198DF17
:100710008FE594E00197F1F76F856062CE0190DF7D
:1007200080E290E00197F1F76F856062CE0188DF8B
:100730006F856062CE0184DF84E0888B6CE0CE013F
:100740007FDF61E0CE017CDF8EEE91E00197F1F773
:1007500082E0898B66E0CE01DF91CF911F910F91EE
:10076000FF90EF906DCFE3D21F920F920FB60F92D2
:1007700011242F933F938F939F93AF93BF938091B7
:10078000B9009091BA00A091BB00B091BC0030912B
:10079000B80020E3230F2D3720F44096A11DB11D92
:1007A00005C023EB230F4196A11DB11D2093B80076
:1007B0008093B9009093BA00A093BB00B093BC00A3
:1007C0008091BD009091BE00A091BF00B091C0008B
:1007D0000196A11DB11D8093BD009093BE00A09312
:1007E000BF00B093C000BF91AF919F918F913F9197
:1007F0002F910F900FBE0F901F9018951F920F9280
:100800000FB60F9211242F933F934F935F936F93E3
:100810007F938F939F93AF93BF93EF93FF93E09159
:10082000C300F091C400309709F451C0968DA6859D
:10083000B785858591FF04C09C91892329F447C021
:100840009C91892309F043C0A389B4899C9185892F
:10085000809589238C93868997890197F1F7608D1C
:10086000718DA685B785558538E020E0CB010197CD
:10087000F1F7822F90E095958795282F4C9145238D
:1008800009F02068315091F7868D81FD2095809187
:10089000C20090E001968F7399273091C1003817FC
:1008A00049F0A091C200B0E0A858BF4F2C938093AC
:1008B000C20003C0868D8160868F828D938D0197E3
:1008C000F1F7A389B4899C918589892B8C93FF9139
:1008D000EF91BF91AF919F918F917F916F915F91B8
:1008E0004F913F912F910F900FBE0F901F90189531
:1008F000789480B7826080BF80B7816080BF83B703
:10090000826083BF83B7816083BF89B7816089BFFD
:100910001EBC8EB582608EBD8FB581608FBD329852
:10092000319A309A379A60E086E030DC62E088EEF7
:1009300090E088DE1092E2001092E1001092E00058
:100940001092DF001092DE001092DD0087E190E04F
:100950009093E4008093E3009091D3009B3008F0E3
:1009600043C021E030E03093DE002093DD0025E13C
:1009700030E03093E0002093DF0027E030E0309358
:10098000E2002093E1008BB7983010F020E201C024
:1009900020E1822B8BBF983028F09B3030F020E094
:1009A00030E005C022E330E002C020E430E03093C4
:1009B000DB002093DA00983030F481E001C0880F2A
:1009C0009A95EAF709C02AE030E0291B310981E055
:1009D00001C0880F2A95EAF78093DC008091E3003C
:1009E0009091E4000197F1F78091E1009091E2008D
:1009F000892B19F18091C3009091C40020E0873CBD
:100A00009207D9F0009709F000DD8091E5008E7F14
:100A10008093E5001092C2001092C10087EC90E034
:100A20009093C4008093C300E091DA00F091DB0062
:100A300090818091DC00892B8083C0E5D0E005E4C3
:100A400010E03AE3E32E30E0F32E4EEEC42EDD2428
:100A5000D39450E0A52E50E0B52EFE018491F8010C
:100A60008490F70194909920A1F0811147DB892DA2
:100A700090E0880F991F825D9F4FFC01A591B49172
:100A80008C91882291E080E009F490E0892E982EE4
:100A900002C0812C912C9092E7008092E600E091B8
:100AA000FB00E23010F4E15001C0E1E0F0E0E85179
:100AB000FF4F6489695F606888EE90E0C1DDB40132
:100AC000990C880B990B4AE0B6DCE1E08091FB00C1
:100AD0008111E0E0E195F0E0E851FF4F6489606842
:100AE00088EE90E0ADDD87EC90E057DC892B51F18A
:100AF00087EC90E069DC4C019093C6008093C500C0
:100B000063E170E080E090E0A3DBF7E48F169104EE
:100B10006CF060E273E080E090E09ADB61E088EEE8
:100B200090E08EDDC6010197F1F70CC0B401092CED
:100B3000000C880B990B97FE02C0CCDCD9CF4AE0A1
:100B40007ADCD6CFA114B10409F487CF59DA85CF66
:100B5000CF931092EB001092EA0084E690E090931D
:100B6000E9008093E80085E08093EC008FEF8093AC
:100B7000ED0084E08093EE0083E08093EF0082E05C
:100B80008093F000C1E0C093F1001092F200109247
:100B9000F3001092F4001092F5001092F6001092FB
:100BA000F70061E088EE90E04DDD1092CA001092EF
:100BB000C90088EE93E0A0E0B0E08093CB00909372
:100BC000CC00A093CD00B093CE008CE690E0909343
:100BD000C8008093C7001092DE001092DD001092D2
:100BE000E0001092DF001092E2001092E1001092FB
:100BF000E4001092E3008091E5008E7F8D7F80936A
:100C0000E50086958170682F6C278FEF90DA61E0A0
:100C10008FEFBCDAEEE3F1E0E491E093D700E3E399
:100C2000F1E0E491F0E0EE0FFF1FE85DFF4F8591EA
:100C300094919093D9008093D80060E087E0A6DA81
:100C40008091E50081FD03C061E087E070DA87E014
:100C50008093D300E6E4F0E0E491E093D400EBE38A
:100C6000F0E0E491F0E0EE0FFF1FE25DFF4F8591B1
:100C700094919093D6008093D500CF9108958CE6FF
:100C800090E09093C8008093C70087EC90E0BDCBC4
:100C900097FB072E16F4009406D077FD08D02DD0D0
:100CA00007FC05D03EF4909581959F4F089570956F
:100CB00061957F4F0895A1E21A2EAA1BBB1BFD016F
:100CC0000DC0AA1FBB1FEE1FFF1FA217B307E4072B
:100CD000F50720F0A21BB30BE40BF50B661F771F83
:100CE000881F991F1A9469F7609570958095909563
:100CF0009B01AC01BD01CF010895AA1BBB1B51E1B3
:100D000007C0AA1FBB1FA617B70710F0A61BB70B7B
:100D1000881F991F5A95A9F780959095BC01CD0120
:100D20000895EE0FFF1F0590F491E02D099481E0E6
:100D300090E0F89400C010E0CCE2D0E003C0FE01E7
:0E0D4000F0DF2196CD32D107D1F7F894FFCF26
:100D4E00000000001B035300000000007901530057
:080D5E00CD01E4016001780100
:00000001FF
