:1000000028C04CC04BC04AC049C048C047C046C0C9
:1000100045C044C043C0A5C241C040C03FC03EC06F
:100020003DC0000000000004030201000000003B8E
:1000300000380000003A0037000101010101010110
:1000400001020202010204081020408004020100A3
:10005000520311241FBECFE5D1E0DEBFCDBF10E0BB
:10006000A0E6B0E0EEE3F8E002C005900D92A836FD
:10007000B107D9F720E0A8E6B0E001C01D92AB3887
:10008000B207E1F710E0C9E2D0E003C02197FE011A
:100090009CD3C832D107D1F7AAD2CFC3B1CF90E059
:1000A000FC01EC5BFF4F2491FC01E75CFF4F849166
:1000B000882399F090E0880F991FFC01ED5CFF4FB9
:1000C000A591B491FC01E35DFF4F859194918FB7A9
:1000D000F894EC91E22BEC938FBF0895CF92DF92CE
:1000E000EF92FF920F931F93CF93DF936C017A01EE
:1000F0008B01C0E0D0E0CE15DF0589F0D8016D910D
:100100008D01D601ED91FC910190F081E02DC601A9
:100110000995892B11F47E0102C02196ECCFC7010D
:10012000DF91CF911F910F91FF90EF90DF90CF90D3
:10013000089590E0FC01EE5DFF4F3491FC01EC5B13
:10014000FF4F2491FC01E75CFF4FE491EE2351F156
:100150003323B1F0323089F028F4313089F480B79C
:100160008F770DC0333029F0343051F48FB58F7D47
:1001700002C08FB58F778FBD03C080B78F7D80BFE2
:10018000F0E0EE0FFF1FE35DFF4FA591B4918FB735
:10019000F894EC91611103C020952E2301C02E2B01
:1001A0002C938FBF089500000000000000008230F3
:1001B000910550F09C01220F331F220F331F079728
:1001C000820F931F0197F1F708953FB7F89480913C
:1001D0006D0090916E00A0916F00B091700022B7F9
:1001E00008B600FE05C02F3F19F00196A11DB11DF4
:1001F0003FBFBA2FA92F982F8827BC01CD01620FCE
:10020000711D811D911D23E030E040E050E08BD254
:10021000B901CA0108958F929F92AF92BF92CF9277
:10022000DF92EF92FF92D1DF4B015C0184E6C82E92
:10023000D12CE12CF12CC9DFDC01CB018819990903
:10024000AA09BB09883E9340A105B10558F021E0F9
:10025000C21AD108E108F10888EE880E83E0981EE2
:10026000A11CB11CC114D104E104F10421F7FF90D9
:10027000EF90DF90CF90BF90AF909F908F900895B8
:10028000CF93DF93EC0160E08E8153DF81E090E05B
:100290008ADF61E08E814DDF81E090E084DF60E005
:1002A0008E8147DF84E690E0DF91CF917CCFCF92C3
:1002B000DF92EF92FF920F931F93CF93DF937C0116
:1002C0006C0187E0C80ED11CC0E0D0E0062F10E022
:1002D000B8010C2E02C0759567950A94E2F761701B
:1002E000F60181916F0125DF2196C430D10581F798
:1002F000C701DF91CF911F910F91FF90EF90DF9099
:10030000CF90BECFCF92DF92EF92FF920F931F93C9
:10031000CF93DF93EC01F62E642F8C810ADF8D8161
:100320008F3F11F060E005DF8F850F2D10E084FF17
:1003300023C06E0187E0C80ED11CE12CF12CB8015E
:100340000E2C02C0759567950A94E2F76170F6016C
:1003500081916F01EEDEFFEFEF1AFF0A88E0E816E9
:10036000F10469F7CE01DF91CF911F910F91FF90BA
:10037000EF90DF90CF9084CFB80184E075956795BA
:100380008A95E1F7CE0193DF6F2DCE01DF91CF91FA
:100390001F910F91FF90EF90DF90CF9088CFEF9259
:1003A000FF920F931F93CF93DF93EC01623018F00D
:1003B0008F8588608F876B8B1C8A80E48D8B80E1B2
:1003C0008E8B80E58F8B8C816ADE8D818F3F09F06B
:1003D00066DE8E8164DE7E0187E0E80EF11C00E0BF
:1003E00010E08F8584FD03C084E090E002C088E0C7
:1003F00090E0081719073CF4F70181917F014FDE67
:100400000F5F1F4FEECF80E593ECCDDE60E08C8177
:1004100090DE60E08E818DDE8D818F3F11F060E097
:1004200088DE6F8564FD16C063E0CE0140DF84E99D
:1004300091E1B9DE63E0CE013ADF84E991E1B3DE18
:1004400063E0CE0134DF86E990E0ADDE62E0CE010C
:100450002EDF14C0606240E0CE0154DF84E991E1F8
:10046000A2DE6F85606240E0CE014CDF86E990E05D
:100470009ADE6F85606240E0CE0144DF6F85606286
:1004800040E0CE013FDF84E0888B40E06CE0CE01AD
:1004900039DF40E061E0CE0135DF80ED97E083DEBB
:1004A00082E0898B40E066E0CE01DF91CF911F9121
:1004B0000F91FF90EF9026CF41E024DF81E090E0A4
:1004C00008958F929F92AF92BF920F931F93CF93F5
:1004D000DF93CDB7DEB7A1970FB6F894DEBF0FBE9E
:1004E000CDBF19A2423008F44AE08E010F5D1F4FC4
:1004F000842E912CA12CB12CA5019401F0D0E62FD3
:10050000B901CA0101501109EA3014F4E05D01C0DB
:10051000E95CD801EC93232B242B252B69F70115DB
:10052000110569F0F80101900020E9F73197AF015A
:10053000401B510BB80183E790E0D0DD02C080E0A2
:1005400090E0A1960FB6F894DEBF0FBECDBFDF914D
:10055000CF911F910F91BF90AF909F908F90089572
:1005600068D11F920F920FB60F9211242F933F93D1
:100570008F939F93AF93BF938091690090916A008E
:10058000A0916B00B0916C003091680026E6230FBB
:100590002D3728F029EE230F0196A11DB11D2093C0
:1005A00068008093690090936A00A0936B00B093F9
:1005B0006C0080916D0090916E00A0916F00B091E1
:1005C00070000196A11DB11D80936D0090936E0087
:1005D000A0936F00B0937000BF91AF919F918F91E6
:1005E0003F912F910F900FBE0F901F901895789408
:1005F00080B7826080BF80B7816080BF83B7826030
:1006000083BF83B7816083BF89B7816089BF1EBC08
:100610008EB582608EBD8EB581608EBD8FB58160D6
:100620008FBD329A319A309A379A62E083E790E030
:10063000B6DEC0E0D0E0C0907100D09072008FEFC5
:10064000C81AD80AD0927200C09271000D2C000C0A
:10065000EE08FF08F7FE14C0E0917300F0917400FB
:100660000190F081E02D6DE283E790E00995662727
:100670007727CB016C197D098E099F094AE003C0D9
:100680004AE0C701B6011DDFC6DD40E061E083E757
:1006900090E038DE80ED97E086DDBDDD209759F2F1
:1006A000AFDCC9CFE3E7F0E01382128284E690E08A
:1006B0009183808385E084838FEF858384E08683C4
:1006C00083E0878382E0808781E0818712861386BA
:1006D000148615861686178661E0CF0160CEA1E2EA
:1006E0001A2EAA1BBB1BFD010DC0AA1FBB1FEE1FAC
:1006F000FF1FA217B307E407F50720F0A21BB30BF7
:10070000E40BF50B661F771F881F991F1A9469F772
:1007100060957095809590959B01AC01BD01CF01CE
:10072000089568940013E894A0E0B0E0E9E9F3E0EC
:100730001DC0EFEFE7F959016A015E23550FEE087E
:10074000FE2C87019B01AC019E23990F660B762F2F
:10075000CB0141D0CDB7DEB7EAE024C02F923F9263
:100760004F925F926F927F928F929F92AF92BF92C1
:10077000CF92DF92EF92FF920F931F93CF93DF936D
:10078000CDB7DEB7CA1BDB0B0FB6F894DEBF0FBECA
:10079000CDBF09942A88398848885F846E847D8417
:1007A0008C849B84AA84B984C884DF80EE80FD8019
:1007B0000C811B81AA81B981CE0FD11D0FB6F8948F
:1007C000DEBF0FBECDBFED010895EE0FFF1F0590F8
:1007D000F491E02D0994DF93CF939F92A0E49A2E99
:1007E0000024D001E001F00116950795F794E794F5
:1007F000D794C794B794A79448F41068A20FB31F76
:10080000C41FD51FE61FF71F081E191E220F331F16
:10081000441F551F661F771F881F991F9A9421F741
:100820009D01AE01BF01C00111249F90CF91DF91C6
:0E083000089581E090E0F89400C0F894FFCFA6
:08083E00000000005C026E00E6
:00000001FF
