:100000002CC050C0FBC3FAC34DC04CC04BC04AC04B
:1000100049C048C047C0A8C345C044C043C042C04F
:1000200041C000003900360000003A0037000000EF
:100030003B0038000101010101010101020202013E
:1000400002040810204080040201000000000004A7
:100050000302010000007005070611241FBECFE552
:10006000D1E0DEBFCDBF10E0A0E6B0E0EEEDFCE0F9
:1000700002C005900D92AC37B107D9F721E0ACE78B
:10008000B0E001C01D92A230B207E1F710E0CCE26F
:10009000D0E003C02197FE010CD6CB32D107D1F7B7
:1000A00027D411C6ADCFCF92DF92EF92FF920F937C
:1000B0001F93CF93DF936C017A018B01C0E0D0E0F6
:1000C000CE15DF0589F0D8016D918D01D601ED9136
:1000D000FC910190F081E02DC6010995892B11F466
:1000E0007E0102C02196ECCFC701DF91CF911F9115
:1000F0000F91FF90EF90DF90CF90089590E0FC017A
:10010000E65BFF4F3491FC01E15CFF4F2491FC0161
:10011000EC5CFF4FE491EE2351F13323B1F0323028
:1001200089F028F4313089F480B78F770DC03330EF
:1001300029F0343051F48FB58F7D02C08FB58F77A1
:100140008FBD03C080B78F7D80BFF0E0EE0FFF1F33
:10015000E25DFF4FA591B4918FB7F894EC916111D6
:1001600003C020952E2301C02E2B2C938FBF089502
:10017000CF93DF9390E0FC01E15CFF4F2491FC0101
:10018000EC5CFF4F8491882361F190E0880F991F08
:10019000FC01E85DFF4FC591D491FC01E25DFF4F8A
:1001A000A591B491611109C09FB7F89488812095F9
:1001B00082238883EC912E230BC0623061F49FB7B9
:1001C000F8943881822F809583238883EC912E2B9D
:1001D0002C939FBF06C08FB7F894E8812E2B2883FD
:1001E0008FBFDF91CF9108953FB7F8948091C10000
:1001F0009091C200A091C300B091C40022B708B68C
:1002000000FE05C02F3F19F00196A11DB11D3FBF93
:10021000BA2FA92F982F8827820F911DA11DB11DDC
:10022000BC01CD0146E0660F771F881F991F4A95D4
:10023000D1F708958F929F92AF92BF92CF92DF92A3
:10024000EF92FF926B017C01CFDF4B015C01C11487
:10025000D104E104F104E9F0C7DFDC01CB01881926
:100260009909AA09BB09883E9340A105B10578F315
:1002700021E0C21AD108E108F10888EE880E83E077
:10028000981EA11CB11CC114D104E104F10421F792
:10029000DECFFF90EF90DF90CF90BF90AF909F9018
:1002A0008F9008952091C7003091C8002817390712
:1002B00071F49091C5008091C600981741F0E091CB
:1002C000C500F0E0E458FF4F808190E008958FEF83
:1002D0009FEF089508951F93CF93DF93DC015C9601
:1002E0002D913C915D972115310539F481E090E025
:1002F00013969C938E9312973DC05196ED91FC916D
:10030000529750969C915097892F80951FB75E9673
:100310004C915E9741FB772770F941FD6095F89409
:100320004081772311F0492B01C048234083E90124
:100330002197F1F748E0508160FF02C0592B01C0BE
:1003400058235083E9012197F1F76695415099F7B9
:10035000772321F090818923808303C08081982BAB
:1003600090831FBF5C968D919C915D970197F1F7EB
:1003700021E030E0C901DF91CF911F9108952091D4
:10038000C7003091C8002817390769F48091C6006A
:100390002091C50090E0805C9F4F821B910960E432
:1003A00070E03ED4089580E090E008952091C70069
:1003B0003091C80028173907B9F49091C500809191
:1003C000C600981789F0E091C500F0E0E458FF4FAF
:1003D00080812091C50030E02F5F3F4F2F7333277E
:1003E0002093C50090E008958FEF9FEF0895E0916E
:1003F000C700F091C800E817F90769F4A389B48928
:100400009C918589809589238C931092C8001092C5
:10041000C70081E0089580E00895CF93DF93EC0159
:1004200060E08E816BDE61E08E8168DE60E08E814F
:1004300065DE83E190E00197F1F7DF91CF910895B8
:10044000CF92DF92EF92FF920F931F93CF93DF93A0
:100450007C016C0187E0C80ED11CC0E0D0E0062F03
:1004600010E0B8010C2E02C0759567950A94E2F76A
:100470006170F60181916F0141DE2196C430D10592
:1004800081F7C701DF91CF911F910F91FF90EF90FE
:10049000DF90CF90C2CFCF92DF92EF92FF920F9377
:1004A0001F93CF93DF93EC01F62E642F8C8126DE11
:1004B0008D818F3F11F060E021DE8F850F2D10E0E0
:1004C00084FF23C06E0187E0C80ED11CE12CF12C03
:1004D000B8010E2C02C0759567950A94E2F7617019
:1004E000F60181916F010ADEFFEFEF1AFF0A88E043
:1004F000E816F10469F7CE01DF91CF911F910F91BA
:10050000FF90EF90DF90CF9088CFB80184E0759591
:1005100067958A95E1F7CE0193DF6F2DCE01DF91CC
:10052000CF911F910F91FF90EF90DF90CF9088CFE8
:1005300041E0B1DF81E090E0089540E0ACCFEF9280
:10054000FF920F931F93CF93DF93EC01623018F06B
:100550008F8588608F876B8B1C8A80E48D8B80E110
:100560008E8B80E58F8B61E08C8102DE8D818F3FE9
:1005700011F061E0FDDD61E08E81FADD7E0187E052
:10058000E80EF11C00E010E08F8584FD03C084E0DC
:1005900090E002C088E090E00817190744F461E099
:1005A000F70181917F01E4DD0F5F1F4FEDCF8EECEE
:1005B00090E30197F1F760E08C81A0DD60E08E812F
:1005C0009DDD8D818F3F11F060E098DD6F8564FDCA
:1005D00019C063E0CE0134DF0FE514E0C8010197D4
:1005E000F1F763E0CE012CDFC8010197F1F763E07A
:1005F000CE0126DF80E290E00197F1F762E0CE01C4
:100600001FDF13C06062CE0198DF8FE594E0019791
:10061000F1F76F856062CE0190DF80E290E0019794
:10062000F1F76F856062CE0188DF6F856062CE0171
:1006300084DF84E0888B6CE0CE017FDF61E0CE0157
:100640007CDF8EEE91E00197F1F782E0898B66E026
:10065000CE01DF91CF911F910F91FF90EF906DCF61
:100660004F925F926F927F92EF92FF920F931F9340
:10067000CF93DF93CDB7DEB7A1970FB6F894DEBF67
:100680000FBECDBF7C01FA01CB0119A2223008F4C4
:100690002AE08E010F5D1F4F422E512C612C712CD0
:1006A000BF01A3019201CFD2F901CA010150110982
:1006B0006A3014F4605D01C0695CD8016C93232B2F
:1006C000242B252B69F70115110591F0F8010190F4
:1006D0000020E9F73197AF01401B510BD701ED9195
:1006E000FC910280F381E02DB801C701099502C099
:1006F00080E090E0A1960FB6F894DEBF0FBECDBFAC
:10070000DF91CF911F910F91FF90EF907F906F90AD
:100710005F904F900895CF92DF92EF92FF920F93E8
:100720001F93CF93DF93EC016A017B01E881F9818C
:100730000190F081E02D6DE209958C014427552749
:10074000BA014C195D096E097F092AE0CE0188DFE4
:10075000800F911FDF91CF911F910F91FF90EF902C
:10076000DF90CF900895ABD21F920F920FB60F92E9
:1007700011242F933F938F939F93AF93BF938091B7
:10078000BD009091BE00A091BF00B091C00030911B
:10079000BC0020E3230F2D3720F44096A11DB11D8E
:1007A00005C023EB230F4196A11DB11D2093BC0072
:1007B0008093BD009093BE00A093BF00B093C00093
:1007C0008091C1009091C200A091C300B091C4007B
:1007D0000196A11DB11D8093C1009093C200A0930A
:1007E000C300B093C400BF91AF919F918F913F918F
:1007F0002F910F900FBE0F901F9018951F920F9280
:100800000FB60F9211242F933F934F935F936F93E3
:100810007F938F939F93AF93BF93EF93FF93E09159
:10082000C700F091C800309709F451C0968DA68595
:10083000B785858591FF04C09C91892329F447C021
:100840009C91892309F043C0A389B4899C9185892F
:10085000809589238C93868997890197F1F7608D1C
:10086000718DA685B785558538E020E0CB010197CD
:10087000F1F7822F90E095958795282F4C9145238D
:1008800009F02068315091F7868D81FD2095809187
:10089000C60090E001968F7399273091C5003817F4
:1008A00049F0A091C600B0E0A458BF4F2C938093AC
:1008B000C60003C0868D8160868F828D938D0197DF
:1008C000F1F7A389B4899C918589892B8C93FF9139
:1008D000EF91BF91AF919F918F917F916F915F91B8
:1008E0004F913F912F910F900FBE0F901F90189531
:1008F000789480B7826080BF80B7816080BF83B703
:10090000826083BF83B7816083BF89B7816089BFFD
:100910001EBC8EB582608EBD8FB581608FBD329852
:10092000319A309A379A62E089EC90E008DE1092B2
:10093000FE001092FD001092FC001092FB0010923D
:10094000FA001092F90087E190E090930001809303
:10095000FF009091EF009B3008F043C021E030E0B1
:100960003093FA002093F90025E130E03093FC0049
:100970002093FB0027E030E03093FE002093FD0041
:100980008BB7983010F020E201C020E1822B8BBFA2
:10099000983028F09B3030F020E030E005C022E3B2
:1009A00030E002C020E430E03093F7002093F600FE
:1009B000983030F481E001C0880F9A95EAF709C0B9
:1009C0002AE030E0291B310981E001C0880F2A9517
:1009D000EAF78093F8008091FF0090910001019761
:1009E000F1F78091FD009091FE00892B19F1809123
:1009F000C7009091C80020E0833E9207D9F000978D
:100A000009F0F5DC809101018E7F80930101109245
:100A1000C6001092C50083EE90E09093C8008093CA
:100A2000C700E091F600F091F70090818091F80006
:100A3000892B8083CEEED1E000E010E083EE90E0E1
:100A40009EDC892B09F446C083EE90E0AFDC7C018C
:100A50009093E2008093E10062E170E080E090E03A
:100A6000E9DBA701FF0C660B770B77FF04C083EE71
:100A700090E051DE04C02AE083EE90E0F1DD42E038
:100A800050E068E770E083EE90E00DDB8091E100DC
:100A90009091E200873491056CF060E273E080E0B1
:100AA00090E0C8DB61E089EC90E047DDCE01019782
:100AB000F1F710C0AC01092E000C660B770B97FF05
:100AC00004C089EC90E027DEBFCF2AE089EC90E0FB
:100AD000C7DDBACF0115110509F4B0CF91DAAECF59
:100AE000CF931092CC001092CB0084E690E09093CC
:100AF000CA008093C90085E08093CD008FEF80937A
:100B0000CE0084E08093CF0083E08093D00082E029
:100B10008093D100C1E0C093D2001092D300109214
:100B2000D4001092D5001092D6001092D7001092E7
:100B3000D80061E089EC90E002DD1092E6001092AE
:100B4000E50088EE93E0A0E0B0E08093E7009093AA
:100B5000E800A093E900B093EA008CE690E090935F
:100B6000E4008093E3001092FA001092F9001092D2
:100B7000FC001092FB001092FE001092FD001092FB
:100B800000011092FF00809101018E7F8D7F809384
:100B9000010186958170682F6C278FEFAFDA61E0D5
:100BA0008FEFE6DAEEE3F1E0E491E093F300E3E3C4
:100BB000F1E0E491F0E0EE0FFF1FE25DFF4F859161
:100BC00094919093F5008093F40060E087E0D0DA90
:100BD0008091010181FD03C061E087E08FDA87E049
:100BE0008093EF00E6E4F0E0E491E093F000EBE3C3
:100BF000F0E0E491F0E0EE0FFF1FEE5DFF4F859116
:100C000094919093F2008093F100CF9108958CE637
:100C100090E09093E4008093E30083EE90E0E7CBD4
:100C200097FB072E16F4009406D077FD08D02DD040
:100C300007FC05D03EF4909581959F4F08957095DF
:100C400061957F4F0895A1E21A2EAA1BBB1BFD01DF
:100C50000DC0AA1FBB1FEE1FFF1FA217B307E4079B
:100C6000F50720F0A21BB30BE40BF50B661F771FF3
:100C7000881F991F1A9469F76095709580959095D3
:100C80009B01AC01BD01CF010895AA1BBB1B51E123
:100C900007C0AA1FBB1FA617B70710F0A61BB70BEC
:100CA000881F991F5A95A9F780959095BC01CD0191
:100CB0000895EE0FFF1F0590F491E02D099481E057
:100CC00090E0F89400C010E0CCE2D0E003C0FE0158
:0E0CD000F0DF2196CD32D107D1F7F894FFCF97
:100CDE000000000098025300000000006B0153005A
:0C0CEE00BF01D60152016A010D0A00008E
:00000001FF
