:100000002BC044C043C042C041C040C03FC03EC0FE
:100010003DC03CC03BC00FC139C038C037C036C03E
:1000200035C000003900360000003A0037000000FB
:100030003B0038000101010101010101020202013E
:1000400002040810204080040201000000000004A7
:10005000030201000000B40311241FBECFE5D1E06C
:10006000DEBFCDBF20E0A0E6B0E001C01D92A33905
:10007000B207E1F710E0CCE2D0E003C02197FE0127
:100080000AD4CB32D107D1F720D135C5B9CF90E012
:10009000FC01E65BFF4F3491FC01E15CFF4F2491D2
:1000A000FC01EC5CFF4FE491EE2351F13323B1F0FE
:1000B000323089F028F4313089F480B78F770DC061
:1000C000333029F0343051F48FB58F7D02C08FB5B5
:1000D0008F778FBD03C080B78F7D80BFF0E0EE0FBC
:1000E000FF1FE25DFF4FA591B4918FB7F894EC919B
:1000F000611103C020952E2301C02E2B2C938FBF9E
:100100000895CF93DF9390E0FC01E15CFF4F2491D1
:10011000FC01EC5CFF4F8491882361F190E0880F33
:10012000991FFC01E85DFF4FC591D491FC01E25D90
:10013000FF4FA591B491611109C09FB7F8948881D0
:10014000209582238883EC912E230BC0623061F4CA
:100150009FB7F8943881822F809583238883EC9110
:100160002E2B2C939FBF06C08FB7F894E8812E2BBF
:1001700028838FBFDF91CF9108953FB7F894809186
:10018000610090916200A0916300B091640022B779
:1001900008B600FE05C02F3F19F00196A11DB11D44
:1001A0003FBFBA2FA92F982F8827820F911DA11D1D
:1001B000B11DBC01CD0146E0660F771F881F991F56
:1001C0004A95D1F708958F929F92AF92BF92CF92A6
:1001D000DF92EF92FF926B017C01CFDF4B015C015C
:1001E000C114D104E104F104E9F0C7DFDC01CB0163
:1001F00088199909AA09BB09883E9340A105B10550
:1002000078F321E0C21AD108E108F10888EE880EDF
:1002100083E0981EA11CB11CC114D104E104F104B7
:1002200021F7DECFFF90EF90DF90CF90BF90AF909F
:100230009F908F9008951F920F920FB60F921124E6
:100240002F933F938F939F93AF93BF9380916500BC
:1002500090916600A0916700B091680030916000B5
:1002600020E3230F2D3720F44096A11DB11D05C0BA
:1002700023EB230F4196A11DB11D209360008093B5
:10028000650090936600A0936700B093680080912A
:10029000610090916200A0916300B09164000196AA
:1002A000A11DB11D8093610090936200A093630033
:1002B000B0936400BF91AF919F918F913F912F9127
:1002C0000F900FBE0F901F901895789480B78260A2
:1002D00080BF80B7816080BF83B7826083BF83B7F0
:1002E000816083BF89B7816089BF1EBC8EB5826083
:1002F0008EBD8FB581608FBD3298319A309A379A12
:100300008FEF9FEFDC0180937D0090937E00A093A0
:100310007F00B093800061E081E0F3DE61E088E07F
:10032000F0DE8BEF9FEF90936E0080936D00C6E43C
:10033000D0E000E010E0CC24CA94DC2CEC2C8FE060
:10034000F82E80919100909192009093900080936C
:100350008F001092850010928600109287001092F4
:100360008800809171009091720097FD7DC02EE110
:10037000F894E0918A00F0918B009281809189003D
:10038000809589238283E0918D00F0918E00918188
:1003900080918C00809589238183E0918D00F0917C
:1003A0008E00928180918C00809589238283E091D8
:1003B0008D00F0918E00918180918C00892B81833A
:1003C000E0918D00F0918E00928180918C0080955B
:1003D00089238283E0918D00F0918E00918180913C
:1003E0008C00809589238183E0918D00F0918E00AF
:1003F000928180918C00809589238283E0918A008C
:10040000F0918B00928180918900892B828378946E
:10041000E0918D00F0918E00B0908C0040917900B9
:1004200050917A0060917B0070917C0030813B217B
:100430008091850090918600A0918700B0918800FE
:10044000311182C084179507A607B70708F07CC052
:100450000196A11DB11D8093850090938600A09305
:100460008700B0938800E2CF8FEF9FEFDC0190937D
:1004700092008093910020918F00309190005C0158
:10048000A21AB30AB0927000A0926F0065E070E00B
:1004900080E090E098DE85EFA81681E0B8065CF079
:1004A00080916D0090916E00919581959109909346
:1004B0006E0080936D0080916D0090916E00181613
:1004C00019067CF580916B0090916C0001969093D9
:1004D0006C0080936B000B978CF161E088E0D7DDB6
:1004E00061E081E0D4DDA0906900B0906A00C501B0
:1004F000BE01AAD1CB0197D1BC01990F880B990BF2
:1005000062DE60E081E0C3DD6AE070E080E090E000
:100510005ADE8FEFA81AB80AB0926A00A09269005A
:100520000DC0892B59F060E088E0B1DD10926C00BD
:1005300010926B0010926A0010926900011511056B
:1005400009F4FFCE5DDDFDCE481759076A077B072A
:1005500008F46BC0F894E0918D00F0918E009281C8
:1005600080918C00892B8283E0918D00F0918E0028
:10057000918180918C00892B8183E0918D00F09195
:100580008E00928180918C00892B8283E0918D0076
:10059000F0918E00918180918C00809589238183D8
:1005A000E0918D00F0918E00928180918C00809579
:1005B00089238283E0918A00F0918B00928180915F
:1005C00089008095892382837894E0918D00F09151
:1005D0008E00B0908C004091790050917A0060912B
:1005E0007B0070917C0030813B218091850090914F
:1005F0008600A0918700B0918800332389F084178A
:100600009507A607B70760F40196A11DB11D809359
:10061000850090938600A0938700B0938800E3CF75
:1006200084179507A607B70728F08EEF9FEFAFEF67
:10063000BFEF1DCF215009F09BCE2FB7F8948091CA
:10064000650090916600A0916700B09168002FBF8F
:1006500040918100509182006091830070918400EC
:10066000841B950BA60BB70B40917D0050917E002B
:1006700060917F0070918000481759076A077B07D7
:1006800068F58090850090908600A0908700B090DB
:100690008800609173007091740080917500909152
:1006A000760086169706A806B90629F0861A970AD4
:1006B000A80AB90A03C0812C912C540123D12DEC36
:1006C0003CEC4CEC5DE384D1ECD0CB01770FAA0B72
:1006D000BB0B88169906AA06BB0650F180918500CF
:1006E00090918600A0918700B0918800409173009E
:1006F0005091740060917500709176008417950791
:10070000A607B70740F48093730090937400A093FA
:100710007500B09376004091730050917400609121
:10072000750070917600841B950BA60BB70B9FCEBE
:10073000C0927300D0927400E0927500F09276003F
:100740002FB7F8948091650090916600A0916700A2
:10075000B09168002FBF8093810090938200A09396
:100760008300B0938400BACFCF93DF93C1E7D0E08A
:1007700081E090E09983888386E391E09F838E8374
:100780008EE597E9A0E0B0E088879987AA87BB87C4
:1007900080E29EE4A0E0B0E08C879D87AE87BF87B3
:1007A00061E083E0AEDC60E082E0ABDC60E083E04F
:1007B0006EDCE2E4F0E0E491E88FE7E3F0E0E4915E
:1007C000F0E0EE0FFF1FEE5DFF4F859194919A8F41
:1007D000898FE1E4F0E0E491EB8FE6E3F0E0E4916F
:1007E000F0E0EE0FFF1FEE5DFF4F859194919D8F1E
:1007F0008C8F8FEF9FEFAFEFBFE08A839B83AC833B
:10080000BD832FB7F8948091650090916600A09108
:100810006700B09168002FBF888B998BAA8BBB8B28
:10082000DF91CF9108950024552704C0080E591F69
:10083000880F991F009729F076956795B8F3710591
:10084000B9F7802D952F089597FB072E16F4009485
:1008500006D077FD08D00BD007FC05D03EF490956C
:1008600081959F4F0895709561957F4F0895AA1BBC
:10087000BB1B51E107C0AA1FBB1FA617B70710F08B
:10088000A61BB70B881F991F5A95A9F780959095BD
:10089000BC01CD010895EE0FFF1F0590F491E02DEE
:1008A000099404D06894B1118DC0089570D088F077
:1008B0009F5790F0B92F9927B751A0F0D1F0660F4C
:1008C000771F881F991F1AF0BA95C9F712C0B13067
:1008D00081F077D0B1E0089574C0672F782F882712
:1008E000B85F39F0B93FCCF3869577956795B395A6
:1008F000D9F73EF490958095709561957F4F8F4F15
:100900009F4F0895E89409C097FB3EF49095809519
:10091000709561957F4F8F4F9F4F9923A9F0F92FC5
:1009200096E9BB279395F695879577956795B79543
:10093000F111F8CFFAF4BB0F11F460FF1BC06F5F29
:100940007F4F8F4F9F4F16C0882311F096E911C03B
:10095000772321F09EE8872F762F05C0662371F05C
:1009600096E8862F70E060E02AF09A95660F771F70
:10097000881FDAF7880F9695879597F9089557FDA0
:100980009058440F551F59F05F3F71F04795880FFD
:1009900097FB991F61F09F3F79F087950895121694
:1009A00013061406551FF2CF4695F1DF08C0161640
:1009B00017061806991FF1CF8695710561050894F1
:1009C0000895E894BB2766277727CB0197F9089508
:1009D0000AD080C071D028F076D018F0952309F0A5
:1009E00062C067C0EFCFCBDFA8F39923D9F35523BB
:1009F000C9F3950F50E0551FAA27EE27FF27BB2705
:100A000000240894679520F4E20FF31FB41F0A1E18
:100A1000220F331F441FAA1F6695A9F7779530F45C
:100A2000F30FB41F0A1E121E08F46395330F441F00
:100A3000AA1F221F769599F7879520F4B40F0A1EF6
:100A4000121E631F440FAA1F221F331F8695A9F78A
:100A5000862F712D602D11249F5750408AF0E1F0B0
:100A600088234AF0EE0FFF1FBB1F661F771F881FEA
:100A700091505040A9F79E3F510570F014C0A2CF8D
:100A80005F3FECF3983EDCF3869577956795B795D5
:100A9000F795E7959F5FC1F7FE2B880F911D9695FF
:100AA000879597F9089597F99F6780E870E060E06F
:100AB00008959FEF80EC089500240A9416161706F7
:100AC00018060906089500240A941216130614063F
:100AD00005060895092E0394000C11F4882352F0A2
:100AE000BB0F40F4BF2B11F460FF04C06F5F7F4F5A
:0A0AF0008F4F9F4F0895F894FFCF39
:00000001FF
